{
  "_format": "hh3-artifact-1",
  "contractName": "SnakeGameRewards",
  "sourceName": "contracts/SnakeGameRewards.sol",
  "abi": [
    {
      "inputs": [],
      "stateMutability": "nonpayable",
      "type": "constructor"
    },
    {
      "anonymous": false,
      "inputs": [
        {
          "indexed": true,
          "internalType": "address",
          "name": "player",
          "type": "address"
        },
        {
          "indexed": false,
          "internalType": "uint256",
          "name": "landId",
          "type": "uint256"
        }
      ],
      "name": "LandActivated",
      "type": "event"
    },
    {
      "anonymous": false,
      "inputs": [
        {
          "indexed": true,
          "internalType": "uint256",
          "name": "landId",
          "type": "uint256"
        },
        {
          "indexed": false,
          "internalType": "string",
          "name": "name",
          "type": "string"
        },
        {
          "indexed": false,
          "internalType": "uint256",
          "name": "price",
          "type": "uint256"
        }
      ],
      "name": "LandCreated",
      "type": "event"
    },
    {
      "anonymous": false,
      "inputs": [
        {
          "indexed": true,
          "internalType": "address",
          "name": "player",
          "type": "address"
        },
        {
          "indexed": false,
          "internalType": "uint256",
          "name": "landId",
          "type": "uint256"
        },
        {
          "indexed": false,
          "internalType": "string",
          "name": "landName",
          "type": "string"
        }
      ],
      "name": "LandPurchased",
      "type": "event"
    },
    {
      "anonymous": false,
      "inputs": [
        {
          "indexed": true,
          "internalType": "address",
          "name": "previousOwner",
          "type": "address"
        },
        {
          "indexed": true,
          "internalType": "address",
          "name": "newOwner",
          "type": "address"
        }
      ],
      "name": "OwnershipTransferred",
      "type": "event"
    },
    {
      "anonymous": false,
      "inputs": [
        {
          "indexed": true,
          "internalType": "address",
          "name": "player",
          "type": "address"
        },
        {
          "indexed": false,
          "internalType": "uint256",
          "name": "amount",
          "type": "uint256"
        }
      ],
      "name": "RewardWithdrawn",
      "type": "event"
    },
    {
      "anonymous": false,
      "inputs": [
        {
          "indexed": true,
          "internalType": "address",
          "name": "player",
          "type": "address"
        },
        {
          "indexed": false,
          "internalType": "uint256",
          "name": "score",
          "type": "uint256"
        },
        {
          "indexed": false,
          "internalType": "uint256",
          "name": "reward",
          "type": "uint256"
        },
        {
          "indexed": false,
          "internalType": "bool",
          "name": "sunsetMode",
          "type": "bool"
        },
        {
          "indexed": false,
          "internalType": "uint256",
          "name": "landUsed",
          "type": "uint256"
        }
      ],
      "name": "ScoreSubmitted",
      "type": "event"
    },
    {
      "inputs": [
        {
          "internalType": "uint256",
          "name": "landId",
          "type": "uint256"
        }
      ],
      "name": "activateLand",
      "outputs": [],
      "stateMutability": "nonpayable",
      "type": "function"
    },
    {
      "inputs": [],
      "name": "cUSD",
      "outputs": [
        {
          "internalType": "address",
          "name": "",
          "type": "address"
        }
      ],
      "stateMutability": "view",
      "type": "function"
    },
    {
      "inputs": [
        {
          "internalType": "enum SnakeGameRewards.LandType",
          "name": "landType",
          "type": "uint8"
        },
        {
          "internalType": "string",
          "name": "name",
          "type": "string"
        },
        {
          "internalType": "string",
          "name": "description",
          "type": "string"
        },
        {
          "internalType": "uint256",
          "name": "price",
          "type": "uint256"
        },
        {
          "internalType": "uint256",
          "name": "rewardMultiplier",
          "type": "uint256"
        }
      ],
      "name": "createLand",
      "outputs": [],
      "stateMutability": "nonpayable",
      "type": "function"
    },
    {
      "inputs": [
        {
          "internalType": "uint256",
          "name": "amount",
          "type": "uint256"
        }
      ],
      "name": "fundContract",
      "outputs": [],
      "stateMutability": "nonpayable",
      "type": "function"
    },
    {
      "inputs": [],
      "name": "getAllLands",
      "outputs": [
        {
          "components": [
            {
              "internalType": "uint256",
              "name": "id",
              "type": "uint256"
            },
            {
              "internalType": "enum SnakeGameRewards.LandType",
              "name": "landType",
              "type": "uint8"
            },
            {
              "internalType": "string",
              "name": "name",
              "type": "string"
            },
            {
              "internalType": "string",
              "name": "description",
              "type": "string"
            },
            {
              "internalType": "uint256",
              "name": "price",
              "type": "uint256"
            },
            {
              "internalType": "bool",
              "name": "purchased",
              "type": "bool"
            },
            {
              "internalType": "uint256",
              "name": "rewardMultiplier",
              "type": "uint256"
            }
          ],
          "internalType": "struct SnakeGameRewards.Land[]",
          "name": "",
          "type": "tuple[]"
        }
      ],
      "stateMutability": "view",
      "type": "function"
    },
    {
      "inputs": [
        {
          "internalType": "uint256",
          "name": "landId",
          "type": "uint256"
        }
      ],
      "name": "getLand",
      "outputs": [
        {
          "components": [
            {
              "internalType": "uint256",
              "name": "id",
              "type": "uint256"
            },
            {
              "internalType": "enum SnakeGameRewards.LandType",
              "name": "landType",
              "type": "uint8"
            },
            {
              "internalType": "string",
              "name": "name",
              "type": "string"
            },
            {
              "internalType": "string",
              "name": "description",
              "type": "string"
            },
            {
              "internalType": "uint256",
              "name": "price",
              "type": "uint256"
            },
            {
              "internalType": "bool",
              "name": "purchased",
              "type": "bool"
            },
            {
              "internalType": "uint256",
              "name": "rewardMultiplier",
              "type": "uint256"
            }
          ],
          "internalType": "struct SnakeGameRewards.Land",
          "name": "",
          "type": "tuple"
        }
      ],
      "stateMutability": "view",
      "type": "function"
    },
    {
      "inputs": [
        {
          "internalType": "uint256",
          "name": "limit",
          "type": "uint256"
        }
      ],
      "name": "getLeaderboard",
      "outputs": [
        {
          "components": [
            {
              "internalType": "address",
              "name": "player",
              "type": "address"
            },
            {
              "internalType": "uint256",
              "name": "score",
              "type": "uint256"
            },
            {
              "internalType": "bool",
              "name": "sunsetMode",
              "type": "bool"
            },
            {
              "internalType": "uint256",
              "name": "reward",
              "type": "uint256"
            },
            {
              "internalType": "uint256",
              "name": "landUsed",
              "type": "uint256"
            },
            {
              "internalType": "uint256",
              "name": "timestamp",
              "type": "uint256"
            }
          ],
          "internalType": "struct SnakeGameRewards.ScoreRecord[]",
          "name": "",
          "type": "tuple[]"
        }
      ],
      "stateMutability": "view",
      "type": "function"
    },
    {
      "inputs": [
        {
          "internalType": "address",
          "name": "player",
          "type": "address"
        }
      ],
      "name": "getPlayerStats",
      "outputs": [
        {
          "components": [
            {
              "internalType": "uint256",
              "name": "totalEarned",
              "type": "uint256"
            },
            {
              "internalType": "uint256",
              "name": "totalScored",
              "type": "uint256"
            },
            {
              "internalType": "uint256",
              "name": "gamesPlayed",
              "type": "uint256"
            },
            {
              "internalType": "uint256",
              "name": "activeLandId",
              "type": "uint256"
            },
            {
              "internalType": "bool",
              "name": "exists",
              "type": "bool"
            }
          ],
          "internalType": "struct SnakeGameRewards.PlayerData",
          "name": "",
          "type": "tuple"
        }
      ],
      "stateMutability": "view",
      "type": "function"
    },
    {
      "inputs": [
        {
          "internalType": "uint256",
          "name": "",
          "type": "uint256"
        }
      ],
      "name": "lands",
      "outputs": [
        {
          "internalType": "uint256",
          "name": "id",
          "type": "uint256"
        },
        {
          "internalType": "enum SnakeGameRewards.LandType",
          "name": "landType",
          "type": "uint8"
        },
        {
          "internalType": "string",
          "name": "name",
          "type": "string"
        },
        {
          "internalType": "string",
          "name": "description",
          "type": "string"
        },
        {
          "internalType": "uint256",
          "name": "price",
          "type": "uint256"
        },
        {
          "internalType": "bool",
          "name": "purchased",
          "type": "bool"
        },
        {
          "internalType": "uint256",
          "name": "rewardMultiplier",
          "type": "uint256"
        }
      ],
      "stateMutability": "view",
      "type": "function"
    },
    {
      "inputs": [],
      "name": "maxRewardPerGame",
      "outputs": [
        {
          "internalType": "uint256",
          "name": "",
          "type": "uint256"
        }
      ],
      "stateMutability": "view",
      "type": "function"
    },
    {
      "inputs": [],
      "name": "minScoreToEarn",
      "outputs": [
        {
          "internalType": "uint256",
          "name": "",
          "type": "uint256"
        }
      ],
      "stateMutability": "view",
      "type": "function"
    },
    {
      "inputs": [],
      "name": "nextLandId",
      "outputs": [
        {
          "internalType": "uint256",
          "name": "",
          "type": "uint256"
        }
      ],
      "stateMutability": "view",
      "type": "function"
    },
    {
      "inputs": [],
      "name": "owner",
      "outputs": [
        {
          "internalType": "address",
          "name": "",
          "type": "address"
        }
      ],
      "stateMutability": "view",
      "type": "function"
    },
    {
      "inputs": [
        {
          "internalType": "address",
          "name": "player",
          "type": "address"
        },
        {
          "internalType": "uint256",
          "name": "landId",
          "type": "uint256"
        }
      ],
      "name": "ownsLand",
      "outputs": [
        {
          "internalType": "bool",
          "name": "",
          "type": "bool"
        }
      ],
      "stateMutability": "view",
      "type": "function"
    },
    {
      "inputs": [
        {
          "internalType": "address",
          "name": "",
          "type": "address"
        },
        {
          "internalType": "uint256",
          "name": "",
          "type": "uint256"
        }
      ],
      "name": "playerOwnedLands",
      "outputs": [
        {
          "internalType": "bool",
          "name": "",
          "type": "bool"
        }
      ],
      "stateMutability": "view",
      "type": "function"
    },
    {
      "inputs": [
        {
          "internalType": "address",
          "name": "",
          "type": "address"
        }
      ],
      "name": "players",
      "outputs": [
        {
          "internalType": "uint256",
          "name": "totalEarned",
          "type": "uint256"
        },
        {
          "internalType": "uint256",
          "name": "totalScored",
          "type": "uint256"
        },
        {
          "internalType": "uint256",
          "name": "gamesPlayed",
          "type": "uint256"
        },
        {
          "internalType": "uint256",
          "name": "activeLandId",
          "type": "uint256"
        },
        {
          "internalType": "bool",
          "name": "exists",
          "type": "bool"
        }
      ],
      "stateMutability": "view",
      "type": "function"
    },
    {
      "inputs": [
        {
          "internalType": "uint256",
          "name": "landId",
          "type": "uint256"
        }
      ],
      "name": "purchaseLand",
      "outputs": [],
      "stateMutability": "nonpayable",
      "type": "function"
    },
    {
      "inputs": [],
      "name": "renounceOwnership",
      "outputs": [],
      "stateMutability": "nonpayable",
      "type": "function"
    },
    {
      "inputs": [],
      "name": "rewardPerPoint",
      "outputs": [
        {
          "internalType": "uint256",
          "name": "",
          "type": "uint256"
        }
      ],
      "stateMutability": "view",
      "type": "function"
    },
    {
      "inputs": [
        {
          "internalType": "uint256",
          "name": "",
          "type": "uint256"
        }
      ],
      "name": "scoreHistory",
      "outputs": [
        {
          "internalType": "address",
          "name": "player",
          "type": "address"
        },
        {
          "internalType": "uint256",
          "name": "score",
          "type": "uint256"
        },
        {
          "internalType": "bool",
          "name": "sunsetMode",
          "type": "bool"
        },
        {
          "internalType": "uint256",
          "name": "reward",
          "type": "uint256"
        },
        {
          "internalType": "uint256",
          "name": "landUsed",
          "type": "uint256"
        },
        {
          "internalType": "uint256",
          "name": "timestamp",
          "type": "uint256"
        }
      ],
      "stateMutability": "view",
      "type": "function"
    },
    {
      "inputs": [
        {
          "internalType": "uint256",
          "name": "score",
          "type": "uint256"
        },
        {
          "internalType": "bool",
          "name": "sunsetMode",
          "type": "bool"
        }
      ],
      "name": "submitScore",
      "outputs": [],
      "stateMutability": "nonpayable",
      "type": "function"
    },
    {
      "inputs": [],
      "name": "sunsetModeBonus",
      "outputs": [
        {
          "internalType": "uint256",
          "name": "",
          "type": "uint256"
        }
      ],
      "stateMutability": "view",
      "type": "function"
    },
    {
      "inputs": [],
      "name": "totalGamesPlayed",
      "outputs": [
        {
          "internalType": "uint256",
          "name": "",
          "type": "uint256"
        }
      ],
      "stateMutability": "view",
      "type": "function"
    },
    {
      "inputs": [],
      "name": "totalRewardsDistributed",
      "outputs": [
        {
          "internalType": "uint256",
          "name": "",
          "type": "uint256"
        }
      ],
      "stateMutability": "view",
      "type": "function"
    },
    {
      "inputs": [
        {
          "internalType": "address",
          "name": "newOwner",
          "type": "address"
        }
      ],
      "name": "transferOwnership",
      "outputs": [],
      "stateMutability": "nonpayable",
      "type": "function"
    },
    {
      "inputs": [
        {
          "internalType": "uint256",
          "name": "newRate",
          "type": "uint256"
        }
      ],
      "name": "updateRewardPerPoint",
      "outputs": [],
      "stateMutability": "nonpayable",
      "type": "function"
    },
    {
      "inputs": [
        {
          "internalType": "uint256",
          "name": "newBonus",
          "type": "uint256"
        }
      ],
      "name": "updateSunsetBonus",
      "outputs": [],
      "stateMutability": "nonpayable",
      "type": "function"
    },
    {
      "inputs": [],
      "name": "withdrawContractBalance",
      "outputs": [],
      "stateMutability": "nonpayable",
      "type": "function"
    }
  ],
  "bytecode": "0x6080604052662386f26fc100006002556032600355606460045568056bc75e2d631000006005556001600a553480156200003857600080fd5b5062000044336200011a565b600180819055506200009860006040518060400160405280600a81526020016953756e6e79205061726b60b01b8152506040518060600160405280602781526020016200295460279139600060646200016a565b6200011460016040518060400160405280601081526020016f115b98da185b9d195908119bdc995cdd60821b8152506040518060400160405280602081526020017f41206d61676963616c20666f7265737420776974682074616c6c207472656573815250678ac7230489e8000060966200016a60201b60201c565b6200057d565b600080546001600160a01b038381166001600160a01b0319831681178455604051919092169283917f8be0079c531659141344cd1fd0a4f28419497f9722a3daafe3b4186f6b6457e09190a35050565b6200017462000319565b6032811015801562000188575061012c8111155b620001cf5760405162461bcd60e51b815260206004820152601260248201527124b73b30b634b21036bab63a34b83634b2b960711b60448201526064015b60405180910390fd5b6040518060e00160405280600a548152602001866001811115620001f757620001f762000377565b815260208082018790526040808301879052606083018690528515608084015260a0909201849052600a5460009081526008825291909120825181559082015160018083018054909160ff199091169083818111156200025b576200025b62000377565b02179055506040820151600282019062000276908262000432565b50606082015160038201906200028d908262000432565b506080820151600482015560a082015160058201805460ff191691151591909117905560c090910151600690910155600a546040517fe6d5b96353b1bb425a06592210894c7ba0ae57d01d2454b168e2303349a8894490620002f39087908690620004fe565b60405180910390a2600a80549060006200030d8362000555565b91905055505050505050565b6000546001600160a01b03163314620003755760405162461bcd60e51b815260206004820181905260248201527f4f776e61626c653a2063616c6c6572206973206e6f7420746865206f776e65726044820152606401620001c6565b565b634e487b7160e01b600052602160045260246000fd5b634e487b7160e01b600052604160045260246000fd5b600181811c90821680620003b857607f821691505b602082108103620003d957634e487b7160e01b600052602260045260246000fd5b50919050565b601f8211156200042d57600081815260208120601f850160051c81016020861015620004085750805b601f850160051c820191505b81811015620004295782815560010162000414565b5050505b505050565b81516001600160401b038111156200044e576200044e6200038d565b62000466816200045f8454620003a3565b84620003df565b602080601f8311600181146200049e5760008415620004855750858301515b600019600386901b1c1916600185901b17855562000429565b600085815260208120601f198616915b82811015620004cf57888601518255948401946001909101908401620004ae565b5085821015620004ee5787850151600019600388901b60f8161c191681555b5050505050600190811b01905550565b604081526000835180604084015260005b818110156200052e57602081870181015160608684010152016200050f565b506000606082850101526060601f19601f8301168401019150508260208301529392505050565b6000600182016200057657634e487b7160e01b600052601160045260246000fd5b5060010190565b6123c7806200058d6000396000f3fe608060405234801561001057600080fd5b50600436106101c45760003560e01c8063aa36c1fb116100f9578063dbb9d5a411610097578063e2eb41ff11610071578063e2eb41ff14610440578063ee172546146104aa578063f02dd53f146104b3578063f2fde38b146104d357600080fd5b8063dbb9d5a4146103fe578063ddd0b37d14610407578063e261f1e51461041a57600080fd5b8063bfab3db9116100d3578063bfab3db91461039c578063c66753bc146103a4578063ce0c6abe146103c7578063d7d05cbe146103d057600080fd5b8063aa36c1fb14610375578063ad9a3eb01461037e578063b7b6e5431461038757600080fd5b80637d41ea1911610166578063925330f111610140578063925330f1146103265780639eac31631461032f578063a34b46fe14610342578063a9200d9b1461036257600080fd5b80637d41ea19146102ef5780638009d5d7146103025780638da5cb5b1461031557600080fd5b8063494f42ff116101a2578063494f42ff146102295780634fd66eae146102795780635c492129146102d0578063715018a6146102e757600080fd5b80631fccf672146101c957806334e24f34146102015780633519a2f814610216575b600080fd5b6101e47386a37b6ca4f0123b643f785385eb0860d5ee810d81565b6040516001600160a01b0390911681526020015b60405180910390f35b61021461020f366004611d05565b6104e6565b005b610214610224366004611d91565b610683565b61023c610237366004611d91565b61074d565b604080516001600160a01b0390971687526020870195909552921515938501939093526060840152608083019190915260a082015260c0016101f8565b61028c610287366004611dc6565b6107a1565b6040516101f89190600060a0820190508251825260208301516020830152604083015160408301526060830151606083015260808301511515608083015292915050565b6102d9600c5481565b6040519081526020016101f8565b610214610832565b6102146102fd366004611d91565b610846565b610214610310366004611d91565b610895565b6000546001600160a01b03166101e4565b6102d960045481565b61021461033d366004611d91565b610a95565b610355610350366004611d91565b610c1b565b6040516101f89190611de8565b610214610370366004611d91565b610d9e565b6102d960055481565b6102d9600a5481565b61038f610dab565b6040516101f89190611f61565b610214611034565b6103b76103b2366004611fc3565b6111ec565b60405190151581526020016101f8565b6102d960025481565b6103b76103de366004611fc3565b600760209081526000928352604080842090915290825290205460ff1681565b6102d960035481565b610214610415366004611ffb565b61123b565b61042d610428366004611d91565b611784565b6040516101f8979695949392919061202b565b61048061044e366004611dc6565b600660205260009081526040902080546001820154600283015460038401546004909401549293919290919060ff1685565b6040805195865260208601949094529284019190915260608301521515608082015260a0016101f8565b6102d9600b5481565b6104c66104c1366004611d91565b6118d9565b6040516101f89190612083565b6102146104e1366004611dc6565b611ae9565b6104ee611b5f565b60328110158015610501575061012c8111155b6105475760405162461bcd60e51b815260206004820152601260248201527124b73b30b634b21036bab63a34b83634b2b960711b60448201526064015b60405180910390fd5b6040518060e00160405280600a54815260200186600181111561056c5761056c611e6b565b815260208082018790526040808301879052606083018690528515608084015260a0909201849052600a5460009081526008825291909120825181559082015160018083018054909160ff199091169083818111156105cd576105cd611e6b565b0217905550604082015160028201906105e69082612119565b50606082015160038201906105fb9082612119565b506080820151600482015560a082015160058201805460ff191691151591909117905560c090910151600690910155600a546040517fe6d5b96353b1bb425a06592210894c7ba0ae57d01d2454b168e2303349a889449061065f90879086906121d9565b60405180910390a2600a805490600061067783612211565b91905055505050505050565b61068b611b5f565b6040516323b872dd60e01b8152336004820152306024820152604481018290527386a37b6ca4f0123b643f785385eb0860d5ee810d906323b872dd906064016020604051808303816000875af11580156106e9573d6000803e3d6000fd5b505050506040513d601f19601f8201168201806040525081019061070d919061222a565b61074a5760405162461bcd60e51b815260206004820152600e60248201526d119d5b991a5b99c819985a5b195960921b604482015260640161053e565b50565b6009818154811061075d57600080fd5b60009182526020909120600690910201805460018201546002830154600384015460048501546005909501546001600160a01b039094169550919360ff9091169286565b6107d56040518060a00160405280600081526020016000815260200160008152602001600081526020016000151581525090565b506001600160a01b0316600090815260066020908152604091829020825160a081018452815481526001820154928101929092526002810154928201929092526003820154606082015260049091015460ff161515608082015290565b61083a611b5f565b6108446000611bb9565b565b61084e611b5f565b60c88111156108905760405162461bcd60e51b815260206004820152600e60248201526d084dedceae640e8dede40d0d2ced60931b604482015260640161053e565b600355565b61089d611c09565b6000811180156108ae5750600a5481105b6108ca5760405162461bcd60e51b815260040161053e90612247565b6000818152600860205260409020600481015461093d5760405162461bcd60e51b815260206004820152602b60248201527f54686973206c616e6420697320667265652c207573652061637469766174654c60448201526a185b99081a5b9cdd19585960aa1b606482015260840161053e565b33600090815260076020908152604080832085845290915290205460ff16156109a05760405162461bcd60e51b8152602060048201526015602482015274105b1c9958591e481bdddb881d1a1a5cc81b185b99605a1b604482015260640161053e565b6004818101546040516323b872dd60e01b8152339281019290925230602483015260448201527386a37b6ca4f0123b643f785385eb0860d5ee810d906323b872dd906064016020604051808303816000875af1158015610a04573d6000803e3d6000fd5b505050506040513d601f19601f82011682018060405250810190610a28919061222a565b5033600081815260076020908152604080832086845290915290819020805460ff19166001179055517f6fc2eb2a6bcd6d12a0cd54c6f38086ea2f95665d5a3fa484e9c07962cdd3784890610a839085906002860190612270565b60405180910390a25061074a60018055565b600081118015610aa65750600a5481105b610ac25760405162461bcd60e51b815260040161053e90612247565b6000818152600860205260409020600481015415610b445733600090815260076020908152604080832085845290915290205460ff16610b445760405162461bcd60e51b815260206004820152601760248201527f596f7520646f6e2774206f776e2074686973206c616e64000000000000000000604482015260640161053e565b3360009081526006602052604090206004015460ff16610bcc576040805160a0810182526000808252602080830182815283850183815260608501888152600160808701818152338752600690955296909420945185559051948401949094559251600283015551600382015590516004909101805460ff1916911515919091179055610be2565b3360009081526006602052604090206003018290555b60405182815233907f893c0c7ededf1056ad3161dba18fe3c69600f0c6ba813e958ae5524d57b4fc289060200160405180910390a25050565b606060008260098054905010610c315782610c35565b6009545b905060008167ffffffffffffffff811115610c5257610c52611c62565b604051908082528060200260200182016040528015610cc757816020015b610cb46040518060c0016040528060006001600160a01b03168152602001600081526020016000151581526020016000815260200160008152602001600081525090565b815260200190600190039081610c705790505b50905060005b82811015610d9657600980548290610ce790600190612303565b610cf19190612303565b81548110610d0157610d01612316565b60009182526020918290206040805160c081018252600690930290910180546001600160a01b03168352600181015493830193909352600283015460ff16151590820152600382015460608201526004820154608082015260059091015460a08201528251839083908110610d7857610d78612316565b60200260200101819052508080610d8e90612211565b915050610ccd565b509392505050565b610da6611b5f565b600255565b606060006001600a54610dbe9190612303565b67ffffffffffffffff811115610dd657610dd6611c62565b604051908082528060200260200182016040528015610e4a57816020015b610e376040805160e08101909152600080825260208201908152602001606081526020016060815260200160008152602001600015158152602001600081525090565b815260200190600190039081610df45790505b50905060015b600a5481101561102e57600081815260086020908152604091829020825160e0810190935280548352600180820154919284019160ff1690811115610e9757610e97611e6b565b6001811115610ea857610ea8611e6b565b8152602001600282018054610ebc90612096565b80601f0160208091040260200160405190810160405280929190818152602001828054610ee890612096565b8015610f355780601f10610f0a57610100808354040283529160200191610f35565b820191906000526020600020905b815481529060010190602001808311610f1857829003601f168201915b50505050508152602001600382018054610f4e90612096565b80601f0160208091040260200160405190810160405280929190818152602001828054610f7a90612096565b8015610fc75780601f10610f9c57610100808354040283529160200191610fc7565b820191906000526020600020905b815481529060010190602001808311610faa57829003601f168201915b505050918352505060048201546020820152600582015460ff161515604082015260069091015460609091015282611000600184612303565b8151811061101057611010612316565b6020026020010181905250808061102690612211565b915050610e50565b50919050565b61103c611b5f565b611044611c09565b6040516370a0823160e01b81523060048201526000907386a37b6ca4f0123b643f785385eb0860d5ee810d906370a0823190602401602060405180830381865afa158015611096573d6000803e3d6000fd5b505050506040513d601f19601f820116820180604052508101906110ba919061232c565b9050600081116111055760405162461bcd60e51b81526020600482015260166024820152754e6f2062616c616e636520746f20776974686472617760501b604482015260640161053e565b7386a37b6ca4f0123b643f785385eb0860d5ee810d63a9059cbb6111316000546001600160a01b031690565b6040516001600160e01b031960e084901b1681526001600160a01b039091166004820152602481018490526044016020604051808303816000875af115801561117e573d6000803e3d6000fd5b505050506040513d601f19601f820116820180604052508101906111a2919061222a565b6111e25760405162461bcd60e51b815260206004820152601160248201527015da5d1a191c985dd85b0819985a5b1959607a1b604482015260640161053e565b5061084460018055565b600081815260086020526040812060040154810361120c57506001611235565b506001600160a01b038216600090815260076020908152604080832084845290915290205460ff165b92915050565b611243611c09565b816004548110156112965760405162461bcd60e51b815260206004820152601d60248201527f53636f726520746f6f206c6f7720746f206561726e2072657761726473000000604482015260640161053e565b61c3508111156112e85760405162461bcd60e51b815260206004820152601760248201527f53636f726520737573706963696f75736c792068696768000000000000000000604482015260640161053e565b600083116113385760405162461bcd60e51b815260206004820152601c60248201527f53636f7265206d7573742062652067726561746572207468616e203000000000604482015260640161053e565b3360009081526006602052604090206004015460ff166113b4576040805160a0810182526000808252602080830182815283850183815260608501849052600160808601818152338652600690945295909320935184555183850155905160028301555160048201805460ff1916911515919091179055600301555b6000670de0b6b3a7640000600254856113cd9190612345565b6113d7919061235c565b3360009081526006602052604090206003015490915080158015906113fd5750600a5481105b1561143057600081815260086020526040902060068101546064906114229085612345565b61142c919061235c565b9250505b831561145e5760646003546064611447919061237e565b6114519084612345565b61145b919061235c565b91505b60055482111561146e5760055491505b336000908152600660205260408120805484929061148d90849061237e565b909155505033600090815260066020526040812060010180548792906114b490849061237e565b90915550503360009081526006602052604081206002018054600192906114dc90849061237e565b90915550506040805160c0810182523381526020810187815286151592820192835260608201858152608083018581524260a0850190815260098054600181018255600091825295517f6e1540171b6c0c960b71a7020d9f60077f6af931a8bbf590da0223dacf75c7af600690970296870180546001600160a01b0319166001600160a01b0390921691909117905593517f6e1540171b6c0c960b71a7020d9f60077f6af931a8bbf590da0223dacf75c7b086015594517f6e1540171b6c0c960b71a7020d9f60077f6af931a8bbf590da0223dacf75c7b18501805460ff191691151591909117905590517f6e1540171b6c0c960b71a7020d9f60077f6af931a8bbf590da0223dacf75c7b2840155517f6e1540171b6c0c960b71a7020d9f60077f6af931a8bbf590da0223dacf75c7b383015591517f6e1540171b6c0c960b71a7020d9f60077f6af931a8bbf590da0223dacf75c7b490910155600b805484929061164990849061237e565b925050819055506001600c6000828254611663919061237e565b909155505060405163a9059cbb60e01b8152336004820152602481018390527386a37b6ca4f0123b643f785385eb0860d5ee810d9063a9059cbb906044016020604051808303816000875af11580156116c0573d6000803e3d6000fd5b505050506040513d601f19601f820116820180604052508101906116e4919061222a565b6117295760405162461bcd60e51b815260206004820152601660248201527514995dd85c99081d1c985b9cd9995c8819985a5b195960521b604482015260640161053e565b60408051868152602081018490528515158183015260608101839052905133917fe33289ac93951f70a5fcdf69fc801aaa1307a0c2bac5edd1275fffcf6e615dd9919081900360800190a250505061178060018055565b5050565b600860205260009081526040902080546001820154600283018054929360ff909216926117b090612096565b80601f01602080910402602001604051908101604052809291908181526020018280546117dc90612096565b80156118295780601f106117fe57610100808354040283529160200191611829565b820191906000526020600020905b81548152906001019060200180831161180c57829003601f168201915b50505050509080600301805461183e90612096565b80601f016020809104026020016040519081016040528092919081815260200182805461186a90612096565b80156118b75780601f1061188c576101008083540402835291602001916118b7565b820191906000526020600020905b81548152906001019060200180831161189a57829003601f168201915b50505050600483015460058401546006909401549293909260ff909116915087565b61191c6040805160e08101909152600080825260208201908152602001606081526020016060815260200160008152602001600015158152602001600081525090565b60008211801561192d5750600a5482105b6119495760405162461bcd60e51b815260040161053e90612247565b600082815260086020908152604091829020825160e0810190935280548352600180820154919284019160ff169081111561198657611986611e6b565b600181111561199757611997611e6b565b81526020016002820180546119ab90612096565b80601f01602080910402602001604051908101604052809291908181526020018280546119d790612096565b8015611a245780601f106119f957610100808354040283529160200191611a24565b820191906000526020600020905b815481529060010190602001808311611a0757829003601f168201915b50505050508152602001600382018054611a3d90612096565b80601f0160208091040260200160405190810160405280929190818152602001828054611a6990612096565b8015611ab65780601f10611a8b57610100808354040283529160200191611ab6565b820191906000526020600020905b815481529060010190602001808311611a9957829003601f168201915b505050918352505060048201546020820152600582015460ff161515604082015260069091015460609091015292915050565b611af1611b5f565b6001600160a01b038116611b565760405162461bcd60e51b815260206004820152602660248201527f4f776e61626c653a206e6577206f776e657220697320746865207a65726f206160448201526564647265737360d01b606482015260840161053e565b61074a81611bb9565b6000546001600160a01b031633146108445760405162461bcd60e51b815260206004820181905260248201527f4f776e61626c653a2063616c6c6572206973206e6f7420746865206f776e6572604482015260640161053e565b600080546001600160a01b038381166001600160a01b0319831681178455604051919092169283917f8be0079c531659141344cd1fd0a4f28419497f9722a3daafe3b4186f6b6457e09190a35050565b600260015403611c5b5760405162461bcd60e51b815260206004820152601f60248201527f5265656e7472616e637947756172643a207265656e7472616e742063616c6c00604482015260640161053e565b6002600155565b634e487b7160e01b600052604160045260246000fd5b600082601f830112611c8957600080fd5b813567ffffffffffffffff80821115611ca457611ca4611c62565b604051601f8301601f19908116603f01168101908282118183101715611ccc57611ccc611c62565b81604052838152866020858801011115611ce557600080fd5b836020870160208301376000602085830101528094505050505092915050565b600080600080600060a08688031215611d1d57600080fd5b853560028110611d2c57600080fd5b9450602086013567ffffffffffffffff80821115611d4957600080fd5b611d5589838a01611c78565b95506040880135915080821115611d6b57600080fd5b50611d7888828901611c78565b9598949750949560608101359550608001359392505050565b600060208284031215611da357600080fd5b5035919050565b80356001600160a01b0381168114611dc157600080fd5b919050565b600060208284031215611dd857600080fd5b611de182611daa565b9392505050565b602080825282518282018190526000919060409081850190868401855b82811015611e5e57815180516001600160a01b03168552868101518786015285810151151586860152606080820151908601526080808201519086015260a0908101519085015260c09093019290850190600101611e05565b5091979650505050505050565b634e487b7160e01b600052602160045260246000fd5b60028110611e9f57634e487b7160e01b600052602160045260246000fd5b9052565b6000815180845260005b81811015611ec957602081850181015186830182015201611ead565b506000602082860101526020601f19601f83011685010191505092915050565b8051825260006020820151611f016020850182611e81565b50604082015160e06040850152611f1b60e0850182611ea3565b905060608301518482036060860152611f348282611ea3565b9150506080830151608085015260a0830151151560a085015260c083015160c08501528091505092915050565b6000602080830181845280855180835260408601915060408160051b870101925083870160005b82811015611fb657603f19888603018452611fa4858351611ee9565b94509285019290850190600101611f88565b5092979650505050505050565b60008060408385031215611fd657600080fd5b611fdf83611daa565b946020939093013593505050565b801515811461074a57600080fd5b6000806040838503121561200e57600080fd5b82359150602083013561202081611fed565b809150509250929050565b87815261203b6020820188611e81565b60e06040820152600061205160e0830188611ea3565b82810360608401526120638188611ea3565b6080840196909652505091151560a083015260c090910152949350505050565b602081526000611de16020830184611ee9565b600181811c908216806120aa57607f821691505b60208210810361102e57634e487b7160e01b600052602260045260246000fd5b601f82111561211457600081815260208120601f850160051c810160208610156120f15750805b601f850160051c820191505b81811015612110578281556001016120fd565b5050505b505050565b815167ffffffffffffffff81111561213357612133611c62565b612147816121418454612096565b846120ca565b602080601f83116001811461217c57600084156121645750858301515b600019600386901b1c1916600185901b178555612110565b600085815260208120601f198616915b828110156121ab5788860151825594840194600190910190840161218c565b50858210156121c95787850151600019600388901b60f8161c191681555b5050505050600190811b01905550565b6040815260006121ec6040830185611ea3565b90508260208301529392505050565b634e487b7160e01b600052601160045260246000fd5b600060018201612223576122236121fb565b5060010190565b60006020828403121561223c57600080fd5b8151611de181611fed565b6020808252600f908201526e125b9d985b1a59081b185b99081251608a1b604082015260600190565b828152600060206040818401526000845461228a81612096565b80604087015260606001808416600081146122ac57600181146122c6576122f4565b60ff1985168984015283151560051b8901830195506122f4565b896000528660002060005b858110156122ec5781548b82018601529083019088016122d1565b8a0184019650505b50939998505050505050505050565b81810381811115611235576112356121fb565b634e487b7160e01b600052603260045260246000fd5b60006020828403121561233e57600080fd5b5051919050565b8082028115828204841417611235576112356121fb565b60008261237957634e487b7160e01b600052601260045260246000fd5b500490565b80820180821115611235576112356121fb56fea2646970667358221220a9e5438ebe0faaf1e5aecbcb8f9bc61ef2a223573ec0beed6296045c423f1b9264736f6c63430008130033412062656175746966756c2073756e6e79207061726b207769746820677265656e206772617373",
  "linkReferences": {},
  "deployedLinkReferences": {},
  "immutableReferences": {},
  "inputSourceName": "project/contracts/SnakeGameRewards.sol",
  "buildInfoId": "solc-0_8_19-a6d718682884458271909343b97e30a3f5f0b587"
}